{
  "abi": [
    {
      "inputs": [
        {
          "internalType": "string",
          "name": "_avatarBaseURI",
          "type": "string"
        }
      ],
      "stateMutability": "nonpayable",
      "type": "constructor"
    },
    {
      "inputs": [],
      "name": "AccessControlBadConfirmation",
      "type": "error"
    },
    {
      "inputs": [
        {
          "internalType": "address",
          "name": "account",
          "type": "address"
        },
        {
          "internalType": "bytes32",
          "name": "neededRole",
          "type": "bytes32"
        }
      ],
      "name": "AccessControlUnauthorizedAccount",
      "type": "error"
    },
    {
      "inputs": [
        {
          "internalType": "address",
          "name": "sender",
          "type": "address"
        },
        {
          "internalType": "uint256",
          "name": "tokenId",
          "type": "uint256"
        },
        {
          "internalType": "address",
          "name": "owner",
          "type": "address"
        }
      ],
      "name": "ERC721IncorrectOwner",
      "type": "error"
    },
    {
      "inputs": [
        {
          "internalType": "address",
          "name": "operator",
          "type": "address"
        },
        {
          "internalType": "uint256",
          "name": "tokenId",
          "type": "uint256"
        }
      ],
      "name": "ERC721InsufficientApproval",
      "type": "error"
    },
    {
      "inputs": [
        {
          "internalType": "address",
          "name": "approver",
          "type": "address"
        }
      ],
      "name": "ERC721InvalidApprover",
      "type": "error"
    },
    {
      "inputs": [
        {
          "internalType": "address",
          "name": "operator",
          "type": "address"
        }
      ],
      "name": "ERC721InvalidOperator",
      "type": "error"
    },
    {
      "inputs": [
        {
          "internalType": "address",
          "name": "owner",
          "type": "address"
        }
      ],
      "name": "ERC721InvalidOwner",
      "type": "error"
    },
    {
      "inputs": [
        {
          "internalType": "address",
          "name": "receiver",
          "type": "address"
        }
      ],
      "name": "ERC721InvalidReceiver",
      "type": "error"
    },
    {
      "inputs": [
        {
          "internalType": "address",
          "name": "sender",
          "type": "address"
        }
      ],
      "name": "ERC721InvalidSender",
      "type": "error"
    },
    {
      "inputs": [
        {
          "internalType": "uint256",
          "name": "tokenId",
          "type": "uint256"
        }
      ],
      "name": "ERC721NonexistentToken",
      "type": "error"
    },
    {
      "inputs": [
        {
          "internalType": "address",
          "name": "owner",
          "type": "address"
        }
      ],
      "name": "OwnableInvalidOwner",
      "type": "error"
    },
    {
      "inputs": [
        {
          "internalType": "address",
          "name": "account",
          "type": "address"
        }
      ],
      "name": "OwnableUnauthorizedAccount",
      "type": "error"
    },
    {
      "anonymous": false,
      "inputs": [
        {
          "indexed": true,
          "internalType": "address",
          "name": "owner",
          "type": "address"
        },
        {
          "indexed": true,
          "internalType": "address",
          "name": "approved",
          "type": "address"
        },
        {
          "indexed": true,
          "internalType": "uint256",
          "name": "tokenId",
          "type": "uint256"
        }
      ],
      "name": "Approval",
      "type": "event"
    },
    {
      "anonymous": false,
      "inputs": [
        {
          "indexed": true,
          "internalType": "address",
          "name": "owner",
          "type": "address"
        },
        {
          "indexed": true,
          "internalType": "address",
          "name": "operator",
          "type": "address"
        },
        {
          "indexed": false,
          "internalType": "bool",
          "name": "approved",
          "type": "bool"
        }
      ],
      "name": "ApprovalForAll",
      "type": "event"
    },
    {
      "anonymous": false,
      "inputs": [
        {
          "indexed": true,
          "internalType": "address",
          "name": "previousOwner",
          "type": "address"
        },
        {
          "indexed": true,
          "internalType": "address",
          "name": "newOwner",
          "type": "address"
        }
      ],
      "name": "OwnershipTransferred",
      "type": "event"
    },
    {
      "anonymous": false,
      "inputs": [
        {
          "indexed": true,
          "internalType": "bytes32",
          "name": "role",
          "type": "bytes32"
        },
        {
          "indexed": true,
          "internalType": "bytes32",
          "name": "previousAdminRole",
          "type": "bytes32"
        },
        {
          "indexed": true,
          "internalType": "bytes32",
          "name": "newAdminRole",
          "type": "bytes32"
        }
      ],
      "name": "RoleAdminChanged",
      "type": "event"
    },
    {
      "anonymous": false,
      "inputs": [
        {
          "indexed": true,
          "internalType": "bytes32",
          "name": "role",
          "type": "bytes32"
        },
        {
          "indexed": true,
          "internalType": "address",
          "name": "account",
          "type": "address"
        },
        {
          "indexed": true,
          "internalType": "address",
          "name": "sender",
          "type": "address"
        }
      ],
      "name": "RoleGranted",
      "type": "event"
    },
    {
      "anonymous": false,
      "inputs": [
        {
          "indexed": true,
          "internalType": "bytes32",
          "name": "role",
          "type": "bytes32"
        },
        {
          "indexed": true,
          "internalType": "address",
          "name": "account",
          "type": "address"
        },
        {
          "indexed": true,
          "internalType": "address",
          "name": "sender",
          "type": "address"
        }
      ],
      "name": "RoleRevoked",
      "type": "event"
    },
    {
      "anonymous": false,
      "inputs": [
        {
          "indexed": true,
          "internalType": "address",
          "name": "from",
          "type": "address"
        },
        {
          "indexed": true,
          "internalType": "address",
          "name": "to",
          "type": "address"
        },
        {
          "indexed": true,
          "internalType": "uint256",
          "name": "tokenId",
          "type": "uint256"
        }
      ],
      "name": "Transfer",
      "type": "event"
    },
    {
      "inputs": [],
      "name": "DEFAULT_ADMIN_ROLE",
      "outputs": [
        {
          "internalType": "bytes32",
          "name": "",
          "type": "bytes32"
        }
      ],
      "stateMutability": "view",
      "type": "function"
    },
    {
      "inputs": [],
      "name": "SUPPORT_ROLE",
      "outputs": [
        {
          "internalType": "bytes32",
          "name": "",
          "type": "bytes32"
        }
      ],
      "stateMutability": "view",
      "type": "function"
    },
    {
      "inputs": [
        {
          "internalType": "address",
          "name": "to",
          "type": "address"
        },
        {
          "internalType": "uint256",
          "name": "tokenId",
          "type": "uint256"
        }
      ],
      "name": "approve",
      "outputs": [],
      "stateMutability": "nonpayable",
      "type": "function"
    },
    {
      "inputs": [
        {
          "internalType": "uint256",
          "name": "",
          "type": "uint256"
        }
      ],
      "name": "attachments",
      "outputs": [
        {
          "internalType": "uint256",
          "name": "",
          "type": "uint256"
        }
      ],
      "stateMutability": "view",
      "type": "function"
    },
    {
      "inputs": [
        {
          "internalType": "address",
          "name": "owner",
          "type": "address"
        }
      ],
      "name": "balanceOf",
      "outputs": [
        {
          "internalType": "uint256",
          "name": "",
          "type": "uint256"
        }
      ],
      "stateMutability": "view",
      "type": "function"
    },
    {
      "inputs": [
        {
          "internalType": "uint256",
          "name": "tokenId",
          "type": "uint256"
        },
        {
          "internalType": "uint256",
          "name": "bitwiseOrMask",
          "type": "uint256"
        }
      ],
      "name": "claim",
      "outputs": [],
      "stateMutability": "nonpayable",
      "type": "function"
    },
    {
      "inputs": [
        {
          "internalType": "uint256",
          "name": "tokenId",
          "type": "uint256"
        }
      ],
      "name": "getApproved",
      "outputs": [
        {
          "internalType": "address",
          "name": "",
          "type": "address"
        }
      ],
      "stateMutability": "view",
      "type": "function"
    },
    {
      "inputs": [
        {
          "internalType": "bytes32",
          "name": "role",
          "type": "bytes32"
        }
      ],
      "name": "getRoleAdmin",
      "outputs": [
        {
          "internalType": "bytes32",
          "name": "",
          "type": "bytes32"
        }
      ],
      "stateMutability": "view",
      "type": "function"
    },
    {
      "inputs": [
        {
          "internalType": "bytes32",
          "name": "role",
          "type": "bytes32"
        },
        {
          "internalType": "address",
          "name": "account",
          "type": "address"
        }
      ],
      "name": "grantRole",
      "outputs": [],
      "stateMutability": "nonpayable",
      "type": "function"
    },
    {
      "inputs": [
        {
          "internalType": "bytes32",
          "name": "role",
          "type": "bytes32"
        },
        {
          "internalType": "address",
          "name": "account",
          "type": "address"
        }
      ],
      "name": "hasRole",
      "outputs": [
        {
          "internalType": "bool",
          "name": "",
          "type": "bool"
        }
      ],
      "stateMutability": "view",
      "type": "function"
    },
    {
      "inputs": [
        {
          "internalType": "address",
          "name": "owner",
          "type": "address"
        },
        {
          "internalType": "address",
          "name": "operator",
          "type": "address"
        }
      ],
      "name": "isApprovedForAll",
      "outputs": [
        {
          "internalType": "bool",
          "name": "",
          "type": "bool"
        }
      ],
      "stateMutability": "view",
      "type": "function"
    },
    {
      "inputs": [
        {
          "internalType": "address",
          "name": "to",
          "type": "address"
        },
        {
          "internalType": "uint256",
          "name": "tokenId",
          "type": "uint256"
        }
      ],
      "name": "mintAndTransfer",
      "outputs": [],
      "stateMutability": "nonpayable",
      "type": "function"
    },
    {
      "inputs": [],
      "name": "name",
      "outputs": [
        {
          "internalType": "string",
          "name": "",
          "type": "string"
        }
      ],
      "stateMutability": "view",
      "type": "function"
    },
    {
      "inputs": [],
      "name": "owner",
      "outputs": [
        {
          "internalType": "address",
          "name": "",
          "type": "address"
        }
      ],
      "stateMutability": "view",
      "type": "function"
    },
    {
      "inputs": [
        {
          "internalType": "uint256",
          "name": "tokenId",
          "type": "uint256"
        }
      ],
      "name": "ownerOf",
      "outputs": [
        {
          "internalType": "address",
          "name": "",
          "type": "address"
        }
      ],
      "stateMutability": "view",
      "type": "function"
    },
    {
      "inputs": [
        {
          "internalType": "address",
          "name": "user",
          "type": "address"
        },
        {
          "internalType": "uint256",
          "name": "tokenId",
          "type": "uint256"
        },
        {
          "internalType": "uint256",
          "name": "configOrMask",
          "type": "uint256"
        }
      ],
      "name": "reconfigure",
      "outputs": [],
      "stateMutability": "nonpayable",
      "type": "function"
    },
    {
      "inputs": [],
      "name": "renounceOwnership",
      "outputs": [],
      "stateMutability": "nonpayable",
      "type": "function"
    },
    {
      "inputs": [
        {
          "internalType": "bytes32",
          "name": "role",
          "type": "bytes32"
        },
        {
          "internalType": "address",
          "name": "callerConfirmation",
          "type": "address"
        }
      ],
      "name": "renounceRole",
      "outputs": [],
      "stateMutability": "nonpayable",
      "type": "function"
    },
    {
      "inputs": [
        {
          "internalType": "bytes32",
          "name": "role",
          "type": "bytes32"
        },
        {
          "internalType": "address",
          "name": "account",
          "type": "address"
        }
      ],
      "name": "revokeRole",
      "outputs": [],
      "stateMutability": "nonpayable",
      "type": "function"
    },
    {
      "inputs": [
        {
          "internalType": "address",
          "name": "from",
          "type": "address"
        },
        {
          "internalType": "address",
          "name": "to",
          "type": "address"
        },
        {
          "internalType": "uint256",
          "name": "tokenId",
          "type": "uint256"
        }
      ],
      "name": "safeTransferFrom",
      "outputs": [],
      "stateMutability": "nonpayable",
      "type": "function"
    },
    {
      "inputs": [
        {
          "internalType": "address",
          "name": "from",
          "type": "address"
        },
        {
          "internalType": "address",
          "name": "to",
          "type": "address"
        },
        {
          "internalType": "uint256",
          "name": "tokenId",
          "type": "uint256"
        },
        {
          "internalType": "bytes",
          "name": "data",
          "type": "bytes"
        }
      ],
      "name": "safeTransferFrom",
      "outputs": [],
      "stateMutability": "nonpayable",
      "type": "function"
    },
    {
      "inputs": [
        {
          "internalType": "address",
          "name": "operator",
          "type": "address"
        },
        {
          "internalType": "bool",
          "name": "approved",
          "type": "bool"
        }
      ],
      "name": "setApprovalForAll",
      "outputs": [],
      "stateMutability": "nonpayable",
      "type": "function"
    },
    {
      "inputs": [
        {
          "internalType": "string",
          "name": "_avatarBaseURI",
          "type": "string"
        }
      ],
      "name": "setBaseURI",
      "outputs": [],
      "stateMutability": "nonpayable",
      "type": "function"
    },
    {
      "inputs": [
        {
          "internalType": "bytes4",
          "name": "interfaceId",
          "type": "bytes4"
        }
      ],
      "name": "supportsInterface",
      "outputs": [
        {
          "internalType": "bool",
          "name": "",
          "type": "bool"
        }
      ],
      "stateMutability": "view",
      "type": "function"
    },
    {
      "inputs": [],
      "name": "symbol",
      "outputs": [
        {
          "internalType": "string",
          "name": "",
          "type": "string"
        }
      ],
      "stateMutability": "view",
      "type": "function"
    },
    {
      "inputs": [
        {
          "internalType": "uint256",
          "name": "tokenId",
          "type": "uint256"
        }
      ],
      "name": "tokenURI",
      "outputs": [
        {
          "internalType": "string",
          "name": "",
          "type": "string"
        }
      ],
      "stateMutability": "view",
      "type": "function"
    },
    {
      "inputs": [
        {
          "internalType": "address",
          "name": "from",
          "type": "address"
        },
        {
          "internalType": "address",
          "name": "to",
          "type": "address"
        },
        {
          "internalType": "uint256",
          "name": "tokenId",
          "type": "uint256"
        }
      ],
      "name": "transferFrom",
      "outputs": [],
      "stateMutability": "nonpayable",
      "type": "function"
    },
    {
      "inputs": [
        {
          "internalType": "address",
          "name": "newOwner",
          "type": "address"
        }
      ],
      "name": "transferOwnership",
      "outputs": [],
      "stateMutability": "nonpayable",
      "type": "function"
    }
  ],
  "bytecode": {
    "object": "0x60a0604052600060809081526008906200001a9082620002ba565b503480156200002857600080fd5b5060405162001ac838038062001ac88339810160408190526200004b9162000386565b336040518060400160405280600c81526020016b2134b1b7b61020bb30ba30b960a11b81525060405180604001604052806004815260200163212b2a2960e11b81525081600090816200009f9190620002ba565b506001620000ae8282620002ba565b5050506001600160a01b038116620000e057604051631e4fbdf760e01b81526000600482015260240160405180910390fd5b620000eb8162000110565b506008620000fa8282620002ba565b506200010860003362000162565b50506200045b565b600780546001600160a01b038381166001600160a01b0319831681179093556040519116919082907f8be0079c531659141344cd1fd0a4f28419497f9722a3daafe3b4186f6b6457e090600090a35050565b60008281526006602090815260408083206001600160a01b038516845290915281205460ff166200020b5760008381526006602090815260408083206001600160a01b03861684529091529020805460ff19166001179055620001c23390565b6001600160a01b0316826001600160a01b0316847f2f8788117e7eff1d82e926ec794901d17c78024a50270940304540a733656f0d60405160405180910390a45060016200020f565b5060005b92915050565b634e487b7160e01b600052604160045260246000fd5b600181811c908216806200024057607f821691505b6020821081036200026157634e487b7160e01b600052602260045260246000fd5b50919050565b601f821115620002b557600081815260208120601f850160051c81016020861015620002905750805b601f850160051c820191505b81811015620002b1578281556001016200029c565b5050505b505050565b81516001600160401b03811115620002d657620002d662000215565b620002ee81620002e784546200022b565b8462000267565b602080601f8311600181146200032657600084156200030d5750858301515b600019600386901b1c1916600185901b178555620002b1565b600085815260208120601f198616915b82811015620003575788860151825594840194600190910190840162000336565b5085821015620003765787850151600019600388901b60f8161c191681555b5050505050600190811b01905550565b600060208083850312156200039a57600080fd5b82516001600160401b0380821115620003b257600080fd5b818501915085601f830112620003c757600080fd5b815181811115620003dc57620003dc62000215565b604051601f8201601f19908116603f0116810190838211818310171562000407576200040762000215565b8160405282815288868487010111156200042057600080fd5b600093505b8284101562000444578484018601518185018701529285019262000425565b600086848301015280965050505050505092915050565b61165d806200046b6000396000f3fe608060405234801561001057600080fd5b50600436106101c45760003560e01c8063715018a6116100f9578063b88d4fde11610097578063d547741f11610071578063d547741f146103de578063dc69cdd6146103f1578063e985e9c514610404578063f2fde38b1461041757600080fd5b8063b88d4fde146103a5578063c3490263146103b8578063c87b56dd146103cb57600080fd5b806394b059ab116100d357806394b059ab1461035b57806395d89b4114610382578063a217fddf1461038a578063a22cb4651461039257600080fd5b8063715018a61461032f5780638da5cb5b1461033757806391d148541461034857600080fd5b8063248a9ca31161016657806342842e0e1161014057806342842e0e146102e357806355f804b3146102f65780636352211e1461030957806370a082311461031c57600080fd5b8063248a9ca31461029a5780632f2ff15d146102bd57806336568abe146102d057600080fd5b8063081812fc116101a2578063081812fc1461021b578063095ea7b3146102465780630d6a20331461025957806323b872dd1461028757600080fd5b806301ffc9a7146101c957806306fdde03146101f1578063080571eb14610206575b600080fd5b6101dc6101d736600461111a565b61042a565b60405190151581526020015b60405180910390f35b6101f961043b565b6040516101e89190611184565b6102196102143660046111b3565b6104cd565b005b61022e6102293660046111dd565b6104e3565b6040516001600160a01b0390911681526020016101e8565b6102196102543660046111b3565b61050c565b6102796102673660046111dd565b60096020526000908152604090205481565b6040519081526020016101e8565b6102196102953660046111f6565b610517565b6102796102a83660046111dd565b60009081526006602052604090206001015490565b6102196102cb366004611232565b6105a7565b6102196102de366004611232565b6105cc565b6102196102f13660046111f6565b610604565b6102196103043660046112ea565b61061f565b61022e6103173660046111dd565b610633565b61027961032a366004611333565b61063e565b610219610686565b6007546001600160a01b031661022e565b6101dc610356366004611232565b61069a565b6102797fe1bb029b7f4f8898e3ea44ceab083b5d93b14e8dd01ea4b170b110de8472fe6481565b6101f96106c5565b610279600081565b6102196103a036600461134e565b6106d4565b6102196103b336600461138a565b6106df565b6102196103c6366004611406565b6106f6565b6101f96103d93660046111dd565b610794565b6102196103ec366004611232565b61079e565b6102196103ff366004611428565b6107c3565b6101dc61041236600461145b565b6108e4565b610219610425366004611333565b610912565b600061043582610950565b92915050565b60606000805461044a90611485565b80601f016020809104026020016040519081016040528092919081815260200182805461047690611485565b80156104c35780601f10610498576101008083540402835291602001916104c3565b820191906000526020600020905b8154815290600101906020018083116104a657829003601f168201915b5050505050905090565b6104d5610975565b6104df82826109a2565b5050565b60006104ee826109bc565b506000828152600460205260409020546001600160a01b0316610435565b6104df8282336109f5565b6001600160a01b03821661054657604051633250574960e11b8152600060048201526024015b60405180910390fd5b6000610553838333610a02565b9050836001600160a01b0316816001600160a01b0316146105a1576040516364283d7b60e01b81526001600160a01b038086166004830152602482018490528216604482015260640161053d565b50505050565b6000828152600660205260409020600101546105c281610afb565b6105a18383610b05565b6001600160a01b03811633146105f55760405163334bd91960e11b815260040160405180910390fd5b6105ff8282610b99565b505050565b6105ff838383604051806020016040528060008152506106df565b610627610975565b60086104df828261150d565b6000610435826109bc565b60006001600160a01b03821661066a576040516322718ad960e21b81526000600482015260240161053d565b506001600160a01b031660009081526003602052604090205490565b61068e610975565b6106986000610c06565b565b60009182526006602090815260408084206001600160a01b0393909316845291905290205460ff1690565b60606001805461044a90611485565b6104df338383610c58565b6106ea848484610517565b6105a184848484610cf7565b6000828152600260205260409020546001600160a01b031633148061072557506007546001600160a01b031633145b61077c5760405162461bcd60e51b815260206004820152602260248201527f596f75277265206e6f7420746865206f776e6572206f66207468697320746f6b60448201526132b760f11b606482015260840161053d565b60009182526009602052604090912080549091179055565b6060610435610e20565b6000828152600660205260409020600101546107b981610afb565b6105a18383610b99565b6107ce60003361069a565b806107fe57506107fe7fe1bb029b7f4f8898e3ea44ceab083b5d93b14e8dd01ea4b170b110de8472fe643361069a565b61085c5760405162461bcd60e51b815260206004820152602960248201527f43616c6c6572206973206e6f7420612070726976696c6567656420737570706f604482015268393a1036b2b6b132b960b91b606482015260840161053d565b6000828152600260205260409020546001600160a01b038481169116146108d15760405162461bcd60e51b815260206004820152602360248201527f55736572206973206e6f7420746865206f776e6572206f66207468697320746f60448201526235b2b760e91b606482015260840161053d565b6000918252600960205260409091205550565b6001600160a01b03918216600090815260056020908152604080832093909416825291909152205460ff1690565b61091a610975565b6001600160a01b03811661094457604051631e4fbdf760e01b81526000600482015260240161053d565b61094d81610c06565b50565b60006001600160e01b03198216637965db0b60e01b1480610435575061043582610e2f565b6007546001600160a01b031633146106985760405163118cdaa760e01b815233600482015260240161053d565b6104df828260405180602001604052806000815250610e7f565b6000818152600260205260408120546001600160a01b03168061043557604051637e27328960e01b81526004810184905260240161053d565b6105ff8383836001610e96565b6000828152600260205260408120546001600160a01b0390811690831615610a2f57610a2f818486610f9c565b6001600160a01b03811615610a6d57610a4c600085600080610e96565b6001600160a01b038116600090815260036020526040902080546000190190555b6001600160a01b03851615610a9c576001600160a01b0385166000908152600360205260409020805460010190555b60008481526002602052604080822080546001600160a01b0319166001600160a01b0389811691821790925591518793918516917fddf252ad1be2c89b69c2b068fc378daa952ba7f163c4a11628f55a4df523b3ef91a4949350505050565b61094d8133611000565b6000610b11838361069a565b610b915760008381526006602090815260408083206001600160a01b03861684529091529020805460ff19166001179055610b493390565b6001600160a01b0316826001600160a01b0316847f2f8788117e7eff1d82e926ec794901d17c78024a50270940304540a733656f0d60405160405180910390a4506001610435565b506000610435565b6000610ba5838361069a565b15610b915760008381526006602090815260408083206001600160a01b0386168085529252808320805460ff1916905551339286917ff6391f5c32d9c69d2a47ea670b442974b53935d1edc7fd64eb21e047a839171b9190a4506001610435565b600780546001600160a01b038381166001600160a01b0319831681179093556040519116919082907f8be0079c531659141344cd1fd0a4f28419497f9722a3daafe3b4186f6b6457e090600090a35050565b6001600160a01b038216610c8a57604051630b61174360e31b81526001600160a01b038316600482015260240161053d565b6001600160a01b03838116600081815260056020908152604080832094871680845294825291829020805460ff191686151590811790915591519182527f17307eab39ab6107e8899845ad3d59bd9653f200f220920489ca2b5937696c31910160405180910390a3505050565b6001600160a01b0383163b156105a157604051630a85bd0160e11b81526001600160a01b0384169063150b7a0290610d399033908890879087906004016115cd565b6020604051808303816000875af1925050508015610d74575060408051601f3d908101601f19168201909252610d719181019061160a565b60015b610ddd573d808015610da2576040519150601f19603f3d011682016040523d82523d6000602084013e610da7565b606091505b508051600003610dd557604051633250574960e11b81526001600160a01b038516600482015260240161053d565b805181602001fd5b6001600160e01b03198116630a85bd0160e11b14610e1957604051633250574960e11b81526001600160a01b038516600482015260240161053d565b5050505050565b60606008805461044a90611485565b60006001600160e01b031982166380ac58cd60e01b1480610e6057506001600160e01b03198216635b5e139f60e01b145b8061043557506301ffc9a760e01b6001600160e01b0319831614610435565b610e898383611039565b6105ff6000848484610cf7565b8080610eaa57506001600160a01b03821615155b15610f6c576000610eba846109bc565b90506001600160a01b03831615801590610ee65750826001600160a01b0316816001600160a01b031614155b8015610ef95750610ef781846108e4565b155b15610f225760405163a9fbf51f60e01b81526001600160a01b038416600482015260240161053d565b8115610f6a5783856001600160a01b0316826001600160a01b03167f8c5be1e5ebec7d5bd14f71427d1e84f3dd0314c0f7b2291e5b200ac8c7c3b92560405160405180910390a45b505b5050600090815260046020526040902080546001600160a01b0319166001600160a01b0392909216919091179055565b610fa783838361109e565b6105ff576001600160a01b038316610fd557604051637e27328960e01b81526004810182905260240161053d565b60405163177e802f60e01b81526001600160a01b03831660048201526024810182905260440161053d565b61100a828261069a565b6104df5760405163e2517d3f60e01b81526001600160a01b03821660048201526024810183905260440161053d565b6001600160a01b03821661106357604051633250574960e11b81526000600482015260240161053d565b600061107183836000610a02565b90506001600160a01b038116156105ff576040516339e3563760e11b81526000600482015260240161053d565b60006001600160a01b038316158015906110fc5750826001600160a01b0316846001600160a01b031614806110d857506110d884846108e4565b806110fc57506000828152600460205260409020546001600160a01b038481169116145b949350505050565b6001600160e01b03198116811461094d57600080fd5b60006020828403121561112c57600080fd5b813561113781611104565b9392505050565b6000815180845260005b8181101561116457602081850181015186830182015201611148565b506000602082860101526020601f19601f83011685010191505092915050565b602081526000611137602083018461113e565b80356001600160a01b03811681146111ae57600080fd5b919050565b600080604083850312156111c657600080fd5b6111cf83611197565b946020939093013593505050565b6000602082840312156111ef57600080fd5b5035919050565b60008060006060848603121561120b57600080fd5b61121484611197565b925061122260208501611197565b9150604084013590509250925092565b6000806040838503121561124557600080fd5b8235915061125560208401611197565b90509250929050565b634e487b7160e01b600052604160045260246000fd5b600067ffffffffffffffff8084111561128f5761128f61125e565b604051601f8501601f19908116603f011681019082821181831017156112b7576112b761125e565b816040528093508581528686860111156112d057600080fd5b858560208301376000602087830101525050509392505050565b6000602082840312156112fc57600080fd5b813567ffffffffffffffff81111561131357600080fd5b8201601f8101841361132457600080fd5b6110fc84823560208401611274565b60006020828403121561134557600080fd5b61113782611197565b6000806040838503121561136157600080fd5b61136a83611197565b91506020830135801515811461137f57600080fd5b809150509250929050565b600080600080608085870312156113a057600080fd5b6113a985611197565b93506113b760208601611197565b925060408501359150606085013567ffffffffffffffff8111156113da57600080fd5b8501601f810187136113eb57600080fd5b6113fa87823560208401611274565b91505092959194509250565b6000806040838503121561141957600080fd5b50508035926020909101359150565b60008060006060848603121561143d57600080fd5b61144684611197565b95602085013595506040909401359392505050565b6000806040838503121561146e57600080fd5b61147783611197565b915061125560208401611197565b600181811c9082168061149957607f821691505b6020821081036114b957634e487b7160e01b600052602260045260246000fd5b50919050565b601f8211156105ff57600081815260208120601f850160051c810160208610156114e65750805b601f850160051c820191505b81811015611505578281556001016114f2565b505050505050565b815167ffffffffffffffff8111156115275761152761125e565b61153b816115358454611485565b846114bf565b602080601f83116001811461157057600084156115585750858301515b600019600386901b1c1916600185901b178555611505565b600085815260208120601f198616915b8281101561159f57888601518255948401946001909101908401611580565b50858210156115bd5787850151600019600388901b60f8161c191681555b5050505050600190811b01905550565b6001600160a01b03858116825284166020820152604081018390526080606082018190526000906116009083018461113e565b9695505050505050565b60006020828403121561161c57600080fd5b81516111378161110456fea26469706673582212207489afd02e75cdf63482b82e68157975feef67fb4d45323ea7a3b5e67b7c714464736f6c63430008150033",
    "linkReferences": {}
  },
  "methodIdentifiers": {
    "DEFAULT_ADMIN_ROLE()": "a217fddf",
    "SUPPORT_ROLE()": "94b059ab",
    "approve(address,uint256)": "095ea7b3",
    "attachments(uint256)": "0d6a2033",
    "balanceOf(address)": "70a08231",
    "claim(uint256,uint256)": "c3490263",
    "getApproved(uint256)": "081812fc",
    "getRoleAdmin(bytes32)": "248a9ca3",
    "grantRole(bytes32,address)": "2f2ff15d",
    "hasRole(bytes32,address)": "91d14854",
    "isApprovedForAll(address,address)": "e985e9c5",
    "mintAndTransfer(address,uint256)": "080571eb",
    "name()": "06fdde03",
    "owner()": "8da5cb5b",
    "ownerOf(uint256)": "6352211e",
    "reconfigure(address,uint256,uint256)": "dc69cdd6",
    "renounceOwnership()": "715018a6",
    "renounceRole(bytes32,address)": "36568abe",
    "revokeRole(bytes32,address)": "d547741f",
    "safeTransferFrom(address,address,uint256)": "42842e0e",
    "safeTransferFrom(address,address,uint256,bytes)": "b88d4fde",
    "setApprovalForAll(address,bool)": "a22cb465",
    "setBaseURI(string)": "55f804b3",
    "supportsInterface(bytes4)": "01ffc9a7",
    "symbol()": "95d89b41",
    "tokenURI(uint256)": "c87b56dd",
    "transferFrom(address,address,uint256)": "23b872dd",
    "transferOwnership(address)": "f2fde38b"
  },
  "id": 34
}