{
  "abi": [
    {
      "inputs": [
        {
          "internalType": "string",
          "name": "_avatarBaseURI",
          "type": "string"
        }
      ],
      "stateMutability": "nonpayable",
      "type": "constructor"
    },
    {
      "inputs": [],
      "name": "AccessControlBadConfirmation",
      "type": "error"
    },
    {
      "inputs": [
        {
          "internalType": "address",
          "name": "account",
          "type": "address"
        },
        {
          "internalType": "bytes32",
          "name": "neededRole",
          "type": "bytes32"
        }
      ],
      "name": "AccessControlUnauthorizedAccount",
      "type": "error"
    },
    {
      "inputs": [
        {
          "internalType": "address",
          "name": "sender",
          "type": "address"
        },
        {
          "internalType": "uint256",
          "name": "tokenId",
          "type": "uint256"
        },
        {
          "internalType": "address",
          "name": "owner",
          "type": "address"
        }
      ],
      "name": "ERC721IncorrectOwner",
      "type": "error"
    },
    {
      "inputs": [
        {
          "internalType": "address",
          "name": "operator",
          "type": "address"
        },
        {
          "internalType": "uint256",
          "name": "tokenId",
          "type": "uint256"
        }
      ],
      "name": "ERC721InsufficientApproval",
      "type": "error"
    },
    {
      "inputs": [
        {
          "internalType": "address",
          "name": "approver",
          "type": "address"
        }
      ],
      "name": "ERC721InvalidApprover",
      "type": "error"
    },
    {
      "inputs": [
        {
          "internalType": "address",
          "name": "operator",
          "type": "address"
        }
      ],
      "name": "ERC721InvalidOperator",
      "type": "error"
    },
    {
      "inputs": [
        {
          "internalType": "address",
          "name": "owner",
          "type": "address"
        }
      ],
      "name": "ERC721InvalidOwner",
      "type": "error"
    },
    {
      "inputs": [
        {
          "internalType": "address",
          "name": "receiver",
          "type": "address"
        }
      ],
      "name": "ERC721InvalidReceiver",
      "type": "error"
    },
    {
      "inputs": [
        {
          "internalType": "address",
          "name": "sender",
          "type": "address"
        }
      ],
      "name": "ERC721InvalidSender",
      "type": "error"
    },
    {
      "inputs": [
        {
          "internalType": "uint256",
          "name": "tokenId",
          "type": "uint256"
        }
      ],
      "name": "ERC721NonexistentToken",
      "type": "error"
    },
    {
      "inputs": [
        {
          "internalType": "address",
          "name": "owner",
          "type": "address"
        }
      ],
      "name": "OwnableInvalidOwner",
      "type": "error"
    },
    {
      "inputs": [
        {
          "internalType": "address",
          "name": "account",
          "type": "address"
        }
      ],
      "name": "OwnableUnauthorizedAccount",
      "type": "error"
    },
    {
      "anonymous": false,
      "inputs": [
        {
          "indexed": true,
          "internalType": "address",
          "name": "owner",
          "type": "address"
        },
        {
          "indexed": true,
          "internalType": "address",
          "name": "approved",
          "type": "address"
        },
        {
          "indexed": true,
          "internalType": "uint256",
          "name": "tokenId",
          "type": "uint256"
        }
      ],
      "name": "Approval",
      "type": "event"
    },
    {
      "anonymous": false,
      "inputs": [
        {
          "indexed": true,
          "internalType": "address",
          "name": "owner",
          "type": "address"
        },
        {
          "indexed": true,
          "internalType": "address",
          "name": "operator",
          "type": "address"
        },
        {
          "indexed": false,
          "internalType": "bool",
          "name": "approved",
          "type": "bool"
        }
      ],
      "name": "ApprovalForAll",
      "type": "event"
    },
    {
      "anonymous": false,
      "inputs": [
        {
          "indexed": true,
          "internalType": "address",
          "name": "previousOwner",
          "type": "address"
        },
        {
          "indexed": true,
          "internalType": "address",
          "name": "newOwner",
          "type": "address"
        }
      ],
      "name": "OwnershipTransferred",
      "type": "event"
    },
    {
      "anonymous": false,
      "inputs": [
        {
          "indexed": true,
          "internalType": "bytes32",
          "name": "role",
          "type": "bytes32"
        },
        {
          "indexed": true,
          "internalType": "bytes32",
          "name": "previousAdminRole",
          "type": "bytes32"
        },
        {
          "indexed": true,
          "internalType": "bytes32",
          "name": "newAdminRole",
          "type": "bytes32"
        }
      ],
      "name": "RoleAdminChanged",
      "type": "event"
    },
    {
      "anonymous": false,
      "inputs": [
        {
          "indexed": true,
          "internalType": "bytes32",
          "name": "role",
          "type": "bytes32"
        },
        {
          "indexed": true,
          "internalType": "address",
          "name": "account",
          "type": "address"
        },
        {
          "indexed": true,
          "internalType": "address",
          "name": "sender",
          "type": "address"
        }
      ],
      "name": "RoleGranted",
      "type": "event"
    },
    {
      "anonymous": false,
      "inputs": [
        {
          "indexed": true,
          "internalType": "bytes32",
          "name": "role",
          "type": "bytes32"
        },
        {
          "indexed": true,
          "internalType": "address",
          "name": "account",
          "type": "address"
        },
        {
          "indexed": true,
          "internalType": "address",
          "name": "sender",
          "type": "address"
        }
      ],
      "name": "RoleRevoked",
      "type": "event"
    },
    {
      "anonymous": false,
      "inputs": [
        {
          "indexed": true,
          "internalType": "address",
          "name": "from",
          "type": "address"
        },
        {
          "indexed": true,
          "internalType": "address",
          "name": "to",
          "type": "address"
        },
        {
          "indexed": true,
          "internalType": "uint256",
          "name": "tokenId",
          "type": "uint256"
        }
      ],
      "name": "Transfer",
      "type": "event"
    },
    {
      "inputs": [],
      "name": "DEFAULT_ADMIN_ROLE",
      "outputs": [
        {
          "internalType": "bytes32",
          "name": "",
          "type": "bytes32"
        }
      ],
      "stateMutability": "view",
      "type": "function"
    },
    {
      "inputs": [],
      "name": "SUPPORT_ROLE",
      "outputs": [
        {
          "internalType": "bytes32",
          "name": "",
          "type": "bytes32"
        }
      ],
      "stateMutability": "view",
      "type": "function"
    },
    {
      "inputs": [
        {
          "internalType": "address",
          "name": "to",
          "type": "address"
        },
        {
          "internalType": "uint256",
          "name": "tokenId",
          "type": "uint256"
        }
      ],
      "name": "approve",
      "outputs": [],
      "stateMutability": "nonpayable",
      "type": "function"
    },
    {
      "inputs": [
        {
          "internalType": "uint256",
          "name": "",
          "type": "uint256"
        }
      ],
      "name": "attachments",
      "outputs": [
        {
          "internalType": "uint256",
          "name": "",
          "type": "uint256"
        }
      ],
      "stateMutability": "view",
      "type": "function"
    },
    {
      "inputs": [
        {
          "internalType": "address",
          "name": "owner",
          "type": "address"
        }
      ],
      "name": "balanceOf",
      "outputs": [
        {
          "internalType": "uint256",
          "name": "",
          "type": "uint256"
        }
      ],
      "stateMutability": "view",
      "type": "function"
    },
    {
      "inputs": [
        {
          "internalType": "uint256",
          "name": "tokenId",
          "type": "uint256"
        },
        {
          "internalType": "uint256",
          "name": "bitwiseOrMask",
          "type": "uint256"
        }
      ],
      "name": "claim",
      "outputs": [],
      "stateMutability": "nonpayable",
      "type": "function"
    },
    {
      "inputs": [
        {
          "internalType": "uint256",
          "name": "tokenId",
          "type": "uint256"
        }
      ],
      "name": "getApproved",
      "outputs": [
        {
          "internalType": "address",
          "name": "",
          "type": "address"
        }
      ],
      "stateMutability": "view",
      "type": "function"
    },
    {
      "inputs": [
        {
          "internalType": "bytes32",
          "name": "role",
          "type": "bytes32"
        }
      ],
      "name": "getRoleAdmin",
      "outputs": [
        {
          "internalType": "bytes32",
          "name": "",
          "type": "bytes32"
        }
      ],
      "stateMutability": "view",
      "type": "function"
    },
    {
      "inputs": [
        {
          "internalType": "bytes32",
          "name": "role",
          "type": "bytes32"
        },
        {
          "internalType": "address",
          "name": "account",
          "type": "address"
        }
      ],
      "name": "grantRole",
      "outputs": [],
      "stateMutability": "nonpayable",
      "type": "function"
    },
    {
      "inputs": [
        {
          "internalType": "bytes32",
          "name": "role",
          "type": "bytes32"
        },
        {
          "internalType": "address",
          "name": "account",
          "type": "address"
        }
      ],
      "name": "hasRole",
      "outputs": [
        {
          "internalType": "bool",
          "name": "",
          "type": "bool"
        }
      ],
      "stateMutability": "view",
      "type": "function"
    },
    {
      "inputs": [
        {
          "internalType": "address",
          "name": "owner",
          "type": "address"
        },
        {
          "internalType": "address",
          "name": "operator",
          "type": "address"
        }
      ],
      "name": "isApprovedForAll",
      "outputs": [
        {
          "internalType": "bool",
          "name": "",
          "type": "bool"
        }
      ],
      "stateMutability": "view",
      "type": "function"
    },
    {
      "inputs": [
        {
          "internalType": "uint256",
          "name": "tokenId",
          "type": "uint256"
        }
      ],
      "name": "mint",
      "outputs": [],
      "stateMutability": "nonpayable",
      "type": "function"
    },
    {
      "inputs": [
        {
          "internalType": "address",
          "name": "to",
          "type": "address"
        },
        {
          "internalType": "uint256",
          "name": "tokenId",
          "type": "uint256"
        }
      ],
      "name": "mintAndTransfer",
      "outputs": [],
      "stateMutability": "nonpayable",
      "type": "function"
    },
    {
      "inputs": [],
      "name": "name",
      "outputs": [
        {
          "internalType": "string",
          "name": "",
          "type": "string"
        }
      ],
      "stateMutability": "view",
      "type": "function"
    },
    {
      "inputs": [],
      "name": "owner",
      "outputs": [
        {
          "internalType": "address",
          "name": "",
          "type": "address"
        }
      ],
      "stateMutability": "view",
      "type": "function"
    },
    {
      "inputs": [
        {
          "internalType": "uint256",
          "name": "tokenId",
          "type": "uint256"
        }
      ],
      "name": "ownerOf",
      "outputs": [
        {
          "internalType": "address",
          "name": "",
          "type": "address"
        }
      ],
      "stateMutability": "view",
      "type": "function"
    },
    {
      "inputs": [
        {
          "internalType": "address",
          "name": "user",
          "type": "address"
        },
        {
          "internalType": "uint256",
          "name": "tokenId",
          "type": "uint256"
        },
        {
          "internalType": "uint256",
          "name": "configuration",
          "type": "uint256"
        }
      ],
      "name": "reconfigure",
      "outputs": [],
      "stateMutability": "nonpayable",
      "type": "function"
    },
    {
      "inputs": [],
      "name": "renounceOwnership",
      "outputs": [],
      "stateMutability": "nonpayable",
      "type": "function"
    },
    {
      "inputs": [
        {
          "internalType": "bytes32",
          "name": "role",
          "type": "bytes32"
        },
        {
          "internalType": "address",
          "name": "callerConfirmation",
          "type": "address"
        }
      ],
      "name": "renounceRole",
      "outputs": [],
      "stateMutability": "nonpayable",
      "type": "function"
    },
    {
      "inputs": [
        {
          "internalType": "bytes32",
          "name": "role",
          "type": "bytes32"
        },
        {
          "internalType": "address",
          "name": "account",
          "type": "address"
        }
      ],
      "name": "revokeRole",
      "outputs": [],
      "stateMutability": "nonpayable",
      "type": "function"
    },
    {
      "inputs": [
        {
          "internalType": "address",
          "name": "from",
          "type": "address"
        },
        {
          "internalType": "address",
          "name": "to",
          "type": "address"
        },
        {
          "internalType": "uint256",
          "name": "tokenId",
          "type": "uint256"
        }
      ],
      "name": "safeTransferFrom",
      "outputs": [],
      "stateMutability": "nonpayable",
      "type": "function"
    },
    {
      "inputs": [
        {
          "internalType": "address",
          "name": "from",
          "type": "address"
        },
        {
          "internalType": "address",
          "name": "to",
          "type": "address"
        },
        {
          "internalType": "uint256",
          "name": "tokenId",
          "type": "uint256"
        },
        {
          "internalType": "bytes",
          "name": "data",
          "type": "bytes"
        }
      ],
      "name": "safeTransferFrom",
      "outputs": [],
      "stateMutability": "nonpayable",
      "type": "function"
    },
    {
      "inputs": [
        {
          "internalType": "address",
          "name": "operator",
          "type": "address"
        },
        {
          "internalType": "bool",
          "name": "approved",
          "type": "bool"
        }
      ],
      "name": "setApprovalForAll",
      "outputs": [],
      "stateMutability": "nonpayable",
      "type": "function"
    },
    {
      "inputs": [
        {
          "internalType": "string",
          "name": "_avatarBaseURI",
          "type": "string"
        }
      ],
      "name": "setBaseURI",
      "outputs": [],
      "stateMutability": "nonpayable",
      "type": "function"
    },
    {
      "inputs": [
        {
          "internalType": "bytes4",
          "name": "interfaceId",
          "type": "bytes4"
        }
      ],
      "name": "supportsInterface",
      "outputs": [
        {
          "internalType": "bool",
          "name": "",
          "type": "bool"
        }
      ],
      "stateMutability": "view",
      "type": "function"
    },
    {
      "inputs": [],
      "name": "symbol",
      "outputs": [
        {
          "internalType": "string",
          "name": "",
          "type": "string"
        }
      ],
      "stateMutability": "view",
      "type": "function"
    },
    {
      "inputs": [
        {
          "internalType": "uint256",
          "name": "tokenId",
          "type": "uint256"
        }
      ],
      "name": "tokenURI",
      "outputs": [
        {
          "internalType": "string",
          "name": "",
          "type": "string"
        }
      ],
      "stateMutability": "view",
      "type": "function"
    },
    {
      "inputs": [
        {
          "internalType": "address",
          "name": "from",
          "type": "address"
        },
        {
          "internalType": "address",
          "name": "to",
          "type": "address"
        },
        {
          "internalType": "uint256",
          "name": "tokenId",
          "type": "uint256"
        }
      ],
      "name": "transferFrom",
      "outputs": [],
      "stateMutability": "nonpayable",
      "type": "function"
    },
    {
      "inputs": [
        {
          "internalType": "address",
          "name": "newOwner",
          "type": "address"
        }
      ],
      "name": "transferOwnership",
      "outputs": [],
      "stateMutability": "nonpayable",
      "type": "function"
    }
  ],
  "bytecode": {
    "object": "0x60a0604052600060809081526008906200001a9082620002ba565b503480156200002857600080fd5b5060405162001ae338038062001ae38339810160408190526200004b9162000386565b336040518060400160405280600c81526020016b2134b1b7b61020bb30ba30b960a11b81525060405180604001604052806004815260200163212b2a2960e11b81525081600090816200009f9190620002ba565b506001620000ae8282620002ba565b5050506001600160a01b038116620000e057604051631e4fbdf760e01b81526000600482015260240160405180910390fd5b620000eb8162000110565b506008620000fa8282620002ba565b506200010860003362000162565b50506200045b565b600780546001600160a01b038381166001600160a01b0319831681179093556040519116919082907f8be0079c531659141344cd1fd0a4f28419497f9722a3daafe3b4186f6b6457e090600090a35050565b60008281526006602090815260408083206001600160a01b038516845290915281205460ff166200020b5760008381526006602090815260408083206001600160a01b03861684529091529020805460ff19166001179055620001c23390565b6001600160a01b0316826001600160a01b0316847f2f8788117e7eff1d82e926ec794901d17c78024a50270940304540a733656f0d60405160405180910390a45060016200020f565b5060005b92915050565b634e487b7160e01b600052604160045260246000fd5b600181811c908216806200024057607f821691505b6020821081036200026157634e487b7160e01b600052602260045260246000fd5b50919050565b601f821115620002b557600081815260208120601f850160051c81016020861015620002905750805b601f850160051c820191505b81811015620002b1578281556001016200029c565b5050505b505050565b81516001600160401b03811115620002d657620002d662000215565b620002ee81620002e784546200022b565b8462000267565b602080601f8311600181146200032657600084156200030d5750858301515b600019600386901b1c1916600185901b178555620002b1565b600085815260208120601f198616915b82811015620003575788860151825594840194600190910190840162000336565b5085821015620003765787850151600019600388901b60f8161c191681555b5050505050600190811b01905550565b600060208083850312156200039a57600080fd5b82516001600160401b0380821115620003b257600080fd5b818501915085601f830112620003c757600080fd5b815181811115620003dc57620003dc62000215565b604051601f8201601f19908116603f0116810190838211818310171562000407576200040762000215565b8160405282815288868487010111156200042057600080fd5b600093505b8284101562000444578484018601518185018701529285019262000425565b600086848301015280965050505050505092915050565b611678806200046b6000396000f3fe608060405234801561001057600080fd5b50600436106101cf5760003560e01c8063715018a611610104578063a22cb465116100a2578063d547741f11610071578063d547741f146103fc578063dc69cdd61461040f578063e985e9c514610422578063f2fde38b1461043557600080fd5b8063a22cb465146103b0578063b88d4fde146103c3578063c3490263146103d6578063c87b56dd146103e957600080fd5b806394b059ab116100de57806394b059ab1461036657806395d89b411461038d578063a0712d6814610395578063a217fddf146103a857600080fd5b8063715018a61461033a5780638da5cb5b1461034257806391d148541461035357600080fd5b8063248a9ca31161017157806342842e0e1161014b57806342842e0e146102ee57806355f804b3146103015780636352211e1461031457806370a082311461032757600080fd5b8063248a9ca3146102a55780632f2ff15d146102c857806336568abe146102db57600080fd5b8063081812fc116101ad578063081812fc14610226578063095ea7b3146102515780630d6a20331461026457806323b872dd1461029257600080fd5b806301ffc9a7146101d457806306fdde03146101fc578063080571eb14610211575b600080fd5b6101e76101e2366004611135565b610448565b60405190151581526020015b60405180910390f35b610204610459565b6040516101f3919061119f565b61022461021f3660046111ce565b6104eb565b005b6102396102343660046111f8565b610501565b6040516001600160a01b0390911681526020016101f3565b61022461025f3660046111ce565b61052a565b6102846102723660046111f8565b60096020526000908152604090205481565b6040519081526020016101f3565b6102246102a0366004611211565b610535565b6102846102b33660046111f8565b60009081526006602052604090206001015490565b6102246102d636600461124d565b6105c5565b6102246102e936600461124d565b6105ea565b6102246102fc366004611211565b610622565b61022461030f366004611305565b61063d565b6102396103223660046111f8565b610651565b61028461033536600461134e565b61065c565b6102246106a4565b6007546001600160a01b0316610239565b6101e761036136600461124d565b6106b8565b6102847fe1bb029b7f4f8898e3ea44ceab083b5d93b14e8dd01ea4b170b110de8472fe6481565b6102046106e3565b6102246103a33660046111f8565b6106f2565b610284600081565b6102246103be366004611369565b610707565b6102246103d13660046113a5565b610712565b6102246103e4366004611421565b610729565b6102046103f73660046111f8565b6107b2565b61022461040a36600461124d565b6107bc565b61022461041d366004611443565b6107e1565b6101e7610430366004611476565b610902565b61022461044336600461134e565b610930565b60006104538261096b565b92915050565b606060008054610468906114a0565b80601f0160208091040260200160405190810160405280929190818152602001828054610494906114a0565b80156104e15780601f106104b6576101008083540402835291602001916104e1565b820191906000526020600020905b8154815290600101906020018083116104c457829003601f168201915b5050505050905090565b6104f3610990565b6104fd82826109bd565b5050565b600061050c826109d7565b506000828152600460205260409020546001600160a01b0316610453565b6104fd828233610a10565b6001600160a01b03821661056457604051633250574960e11b8152600060048201526024015b60405180910390fd5b6000610571838333610a1d565b9050836001600160a01b0316816001600160a01b0316146105bf576040516364283d7b60e01b81526001600160a01b038086166004830152602482018490528216604482015260640161055b565b50505050565b6000828152600660205260409020600101546105e081610b16565b6105bf8383610b20565b6001600160a01b03811633146106135760405163334bd91960e11b815260040160405180910390fd5b61061d8282610bb4565b505050565b61061d83838360405180602001604052806000815250610712565b610645610990565b60086104fd8282611528565b6000610453826109d7565b60006001600160a01b038216610688576040516322718ad960e21b81526000600482015260240161055b565b506001600160a01b031660009081526003602052604090205490565b6106ac610990565b6106b66000610c21565b565b60009182526006602090815260408084206001600160a01b0393909316845291905290205460ff1690565b606060018054610468906114a0565b6106fa610990565b61070433826109bd565b50565b6104fd338383610c73565b61071d848484610535565b6105bf84848484610d12565b6000828152600260205260409020546001600160a01b0316331461079a5760405162461bcd60e51b815260206004820152602260248201527f596f75277265206e6f7420746865206f776e6572206f66207468697320746f6b60448201526132b760f11b606482015260840161055b565b60009182526009602052604090912080549091179055565b6060610453610e3b565b6000828152600660205260409020600101546107d781610b16565b6105bf8383610bb4565b6107ec6000336106b8565b8061081c575061081c7fe1bb029b7f4f8898e3ea44ceab083b5d93b14e8dd01ea4b170b110de8472fe64336106b8565b61087a5760405162461bcd60e51b815260206004820152602960248201527f43616c6c6572206973206e6f7420612070726976696c6567656420737570706f604482015268393a1036b2b6b132b960b91b606482015260840161055b565b6000828152600260205260409020546001600160a01b038481169116146108ef5760405162461bcd60e51b815260206004820152602360248201527f55736572206973206e6f7420746865206f776e6572206f66207468697320746f60448201526235b2b760e91b606482015260840161055b565b6000918252600960205260409091205550565b6001600160a01b03918216600090815260056020908152604080832093909416825291909152205460ff1690565b610938610990565b6001600160a01b03811661096257604051631e4fbdf760e01b81526000600482015260240161055b565b61070481610c21565b60006001600160e01b03198216637965db0b60e01b1480610453575061045382610e4a565b6007546001600160a01b031633146106b65760405163118cdaa760e01b815233600482015260240161055b565b6104fd828260405180602001604052806000815250610e9a565b6000818152600260205260408120546001600160a01b03168061045357604051637e27328960e01b81526004810184905260240161055b565b61061d8383836001610eb1565b6000828152600260205260408120546001600160a01b0390811690831615610a4a57610a4a818486610fb7565b6001600160a01b03811615610a8857610a67600085600080610eb1565b6001600160a01b038116600090815260036020526040902080546000190190555b6001600160a01b03851615610ab7576001600160a01b0385166000908152600360205260409020805460010190555b60008481526002602052604080822080546001600160a01b0319166001600160a01b0389811691821790925591518793918516917fddf252ad1be2c89b69c2b068fc378daa952ba7f163c4a11628f55a4df523b3ef91a4949350505050565b610704813361101b565b6000610b2c83836106b8565b610bac5760008381526006602090815260408083206001600160a01b03861684529091529020805460ff19166001179055610b643390565b6001600160a01b0316826001600160a01b0316847f2f8788117e7eff1d82e926ec794901d17c78024a50270940304540a733656f0d60405160405180910390a4506001610453565b506000610453565b6000610bc083836106b8565b15610bac5760008381526006602090815260408083206001600160a01b0386168085529252808320805460ff1916905551339286917ff6391f5c32d9c69d2a47ea670b442974b53935d1edc7fd64eb21e047a839171b9190a4506001610453565b600780546001600160a01b038381166001600160a01b0319831681179093556040519116919082907f8be0079c531659141344cd1fd0a4f28419497f9722a3daafe3b4186f6b6457e090600090a35050565b6001600160a01b038216610ca557604051630b61174360e31b81526001600160a01b038316600482015260240161055b565b6001600160a01b03838116600081815260056020908152604080832094871680845294825291829020805460ff191686151590811790915591519182527f17307eab39ab6107e8899845ad3d59bd9653f200f220920489ca2b5937696c31910160405180910390a3505050565b6001600160a01b0383163b156105bf57604051630a85bd0160e11b81526001600160a01b0384169063150b7a0290610d549033908890879087906004016115e8565b6020604051808303816000875af1925050508015610d8f575060408051601f3d908101601f19168201909252610d8c91810190611625565b60015b610df8573d808015610dbd576040519150601f19603f3d011682016040523d82523d6000602084013e610dc2565b606091505b508051600003610df057604051633250574960e11b81526001600160a01b038516600482015260240161055b565b805181602001fd5b6001600160e01b03198116630a85bd0160e11b14610e3457604051633250574960e11b81526001600160a01b038516600482015260240161055b565b5050505050565b606060088054610468906114a0565b60006001600160e01b031982166380ac58cd60e01b1480610e7b57506001600160e01b03198216635b5e139f60e01b145b8061045357506301ffc9a760e01b6001600160e01b0319831614610453565b610ea48383611054565b61061d6000848484610d12565b8080610ec557506001600160a01b03821615155b15610f87576000610ed5846109d7565b90506001600160a01b03831615801590610f015750826001600160a01b0316816001600160a01b031614155b8015610f145750610f128184610902565b155b15610f3d5760405163a9fbf51f60e01b81526001600160a01b038416600482015260240161055b565b8115610f855783856001600160a01b0316826001600160a01b03167f8c5be1e5ebec7d5bd14f71427d1e84f3dd0314c0f7b2291e5b200ac8c7c3b92560405160405180910390a45b505b5050600090815260046020526040902080546001600160a01b0319166001600160a01b0392909216919091179055565b610fc28383836110b9565b61061d576001600160a01b038316610ff057604051637e27328960e01b81526004810182905260240161055b565b60405163177e802f60e01b81526001600160a01b03831660048201526024810182905260440161055b565b61102582826106b8565b6104fd5760405163e2517d3f60e01b81526001600160a01b03821660048201526024810183905260440161055b565b6001600160a01b03821661107e57604051633250574960e11b81526000600482015260240161055b565b600061108c83836000610a1d565b90506001600160a01b0381161561061d576040516339e3563760e11b81526000600482015260240161055b565b60006001600160a01b038316158015906111175750826001600160a01b0316846001600160a01b031614806110f357506110f38484610902565b8061111757506000828152600460205260409020546001600160a01b038481169116145b949350505050565b6001600160e01b03198116811461070457600080fd5b60006020828403121561114757600080fd5b81356111528161111f565b9392505050565b6000815180845260005b8181101561117f57602081850181015186830182015201611163565b506000602082860101526020601f19601f83011685010191505092915050565b6020815260006111526020830184611159565b80356001600160a01b03811681146111c957600080fd5b919050565b600080604083850312156111e157600080fd5b6111ea836111b2565b946020939093013593505050565b60006020828403121561120a57600080fd5b5035919050565b60008060006060848603121561122657600080fd5b61122f846111b2565b925061123d602085016111b2565b9150604084013590509250925092565b6000806040838503121561126057600080fd5b82359150611270602084016111b2565b90509250929050565b634e487b7160e01b600052604160045260246000fd5b600067ffffffffffffffff808411156112aa576112aa611279565b604051601f8501601f19908116603f011681019082821181831017156112d2576112d2611279565b816040528093508581528686860111156112eb57600080fd5b858560208301376000602087830101525050509392505050565b60006020828403121561131757600080fd5b813567ffffffffffffffff81111561132e57600080fd5b8201601f8101841361133f57600080fd5b6111178482356020840161128f565b60006020828403121561136057600080fd5b611152826111b2565b6000806040838503121561137c57600080fd5b611385836111b2565b91506020830135801515811461139a57600080fd5b809150509250929050565b600080600080608085870312156113bb57600080fd5b6113c4856111b2565b93506113d2602086016111b2565b925060408501359150606085013567ffffffffffffffff8111156113f557600080fd5b8501601f8101871361140657600080fd5b6114158782356020840161128f565b91505092959194509250565b6000806040838503121561143457600080fd5b50508035926020909101359150565b60008060006060848603121561145857600080fd5b611461846111b2565b95602085013595506040909401359392505050565b6000806040838503121561148957600080fd5b611492836111b2565b9150611270602084016111b2565b600181811c908216806114b457607f821691505b6020821081036114d457634e487b7160e01b600052602260045260246000fd5b50919050565b601f82111561061d57600081815260208120601f850160051c810160208610156115015750805b601f850160051c820191505b818110156115205782815560010161150d565b505050505050565b815167ffffffffffffffff81111561154257611542611279565b6115568161155084546114a0565b846114da565b602080601f83116001811461158b57600084156115735750858301515b600019600386901b1c1916600185901b178555611520565b600085815260208120601f198616915b828110156115ba5788860151825594840194600190910190840161159b565b50858210156115d85787850151600019600388901b60f8161c191681555b5050505050600190811b01905550565b6001600160a01b038581168252841660208201526040810183905260806060820181905260009061161b90830184611159565b9695505050505050565b60006020828403121561163757600080fd5b81516111528161111f56fea264697066735822122016b83d009aca85ef7897ea67bd8d728a3c64849cb8458adcb63e76a8de3e601864736f6c63430008150033",
    "linkReferences": {}
  },
  "methodIdentifiers": {
    "DEFAULT_ADMIN_ROLE()": "a217fddf",
    "SUPPORT_ROLE()": "94b059ab",
    "approve(address,uint256)": "095ea7b3",
    "attachments(uint256)": "0d6a2033",
    "balanceOf(address)": "70a08231",
    "claim(uint256,uint256)": "c3490263",
    "getApproved(uint256)": "081812fc",
    "getRoleAdmin(bytes32)": "248a9ca3",
    "grantRole(bytes32,address)": "2f2ff15d",
    "hasRole(bytes32,address)": "91d14854",
    "isApprovedForAll(address,address)": "e985e9c5",
    "mint(uint256)": "a0712d68",
    "mintAndTransfer(address,uint256)": "080571eb",
    "name()": "06fdde03",
    "owner()": "8da5cb5b",
    "ownerOf(uint256)": "6352211e",
    "reconfigure(address,uint256,uint256)": "dc69cdd6",
    "renounceOwnership()": "715018a6",
    "renounceRole(bytes32,address)": "36568abe",
    "revokeRole(bytes32,address)": "d547741f",
    "safeTransferFrom(address,address,uint256)": "42842e0e",
    "safeTransferFrom(address,address,uint256,bytes)": "b88d4fde",
    "setApprovalForAll(address,bool)": "a22cb465",
    "setBaseURI(string)": "55f804b3",
    "supportsInterface(bytes4)": "01ffc9a7",
    "symbol()": "95d89b41",
    "tokenURI(uint256)": "c87b56dd",
    "transferFrom(address,address,uint256)": "23b872dd",
    "transferOwnership(address)": "f2fde38b"
  },
  "id": 34
}